{
  "contractName": "Campaign",
  "abi": [
    {
      "constant": true,
      "inputs": [
        {
          "name": "",
          "type": "uint256"
        }
      ],
      "name": "contributions",
      "outputs": [
        {
          "name": "amount",
          "type": "uint256"
        },
        {
          "name": "isMatchVault",
          "type": "bool"
        },
        {
          "name": "contributor",
          "type": "address"
        }
      ],
      "payable": false,
      "stateMutability": "view",
      "type": "function"
    },
    {
      "constant": true,
      "inputs": [
        {
          "name": "",
          "type": "address"
        }
      ],
      "name": "contributors",
      "outputs": [
        {
          "name": "",
          "type": "uint256"
        }
      ],
      "payable": false,
      "stateMutability": "view",
      "type": "function"
    },
    {
      "constant": true,
      "inputs": [],
      "name": "currentMatchVault",
      "outputs": [
        {
          "name": "",
          "type": "uint256"
        }
      ],
      "payable": false,
      "stateMutability": "view",
      "type": "function"
    },
    {
      "constant": true,
      "inputs": [],
      "name": "contributionsCount",
      "outputs": [
        {
          "name": "",
          "type": "uint256"
        }
      ],
      "payable": false,
      "stateMutability": "view",
      "type": "function"
    },
    {
      "constant": true,
      "inputs": [],
      "name": "totalMatchVault",
      "outputs": [
        {
          "name": "",
          "type": "uint256"
        }
      ],
      "payable": false,
      "stateMutability": "view",
      "type": "function"
    },
    {
      "constant": true,
      "inputs": [],
      "name": "contributorsCount",
      "outputs": [
        {
          "name": "",
          "type": "uint256"
        }
      ],
      "payable": false,
      "stateMutability": "view",
      "type": "function"
    },
    {
      "constant": true,
      "inputs": [],
      "name": "campaignHub",
      "outputs": [
        {
          "name": "",
          "type": "address"
        }
      ],
      "payable": false,
      "stateMutability": "view",
      "type": "function"
    },
    {
      "constant": true,
      "inputs": [
        {
          "name": "",
          "type": "address"
        }
      ],
      "name": "contributorToVault",
      "outputs": [
        {
          "name": "",
          "type": "uint256"
        }
      ],
      "payable": false,
      "stateMutability": "view",
      "type": "function"
    },
    {
      "constant": true,
      "inputs": [],
      "name": "properties",
      "outputs": [
        {
          "name": "title",
          "type": "string"
        },
        {
          "name": "deadline",
          "type": "uint256"
        },
        {
          "name": "matchRate",
          "type": "uint8"
        },
        {
          "name": "creator",
          "type": "address"
        }
      ],
      "payable": false,
      "stateMutability": "view",
      "type": "function"
    },
    {
      "constant": true,
      "inputs": [],
      "name": "totalFunding",
      "outputs": [
        {
          "name": "",
          "type": "uint256"
        }
      ],
      "payable": false,
      "stateMutability": "view",
      "type": "function"
    },
    {
      "inputs": [
        {
          "name": "_title",
          "type": "string"
        },
        {
          "name": "_deadline",
          "type": "uint256"
        },
        {
          "name": "_matchRate",
          "type": "uint8"
        },
        {
          "name": "_creator",
          "type": "address"
        }
      ],
      "payable": false,
      "stateMutability": "nonpayable",
      "type": "constructor"
    },
    {
      "payable": false,
      "stateMutability": "nonpayable",
      "type": "fallback"
    },
    {
      "anonymous": false,
      "inputs": [
        {
          "indexed": false,
          "name": "campaignAddress",
          "type": "address"
        },
        {
          "indexed": false,
          "name": "contributor",
          "type": "address"
        },
        {
          "indexed": false,
          "name": "amount",
          "type": "uint256"
        }
      ],
      "name": "LogContributionReceived",
      "type": "event"
    },
    {
      "anonymous": false,
      "inputs": [
        {
          "indexed": false,
          "name": "campaignAddress",
          "type": "address"
        },
        {
          "indexed": false,
          "name": "contributor",
          "type": "address"
        },
        {
          "indexed": false,
          "name": "amount",
          "type": "uint256"
        }
      ],
      "name": "LogContributionVaultReceived",
      "type": "event"
    },
    {
      "anonymous": false,
      "inputs": [
        {
          "indexed": false,
          "name": "campaignAddress",
          "type": "address"
        },
        {
          "indexed": false,
          "name": "owner",
          "type": "address"
        },
        {
          "indexed": false,
          "name": "totalPayout",
          "type": "uint256"
        }
      ],
      "name": "LogPayoutInitiated",
      "type": "event"
    },
    {
      "anonymous": false,
      "inputs": [
        {
          "indexed": false,
          "name": "campaignAddress",
          "type": "address"
        },
        {
          "indexed": false,
          "name": "contributor",
          "type": "address"
        },
        {
          "indexed": false,
          "name": "refundAmount",
          "type": "uint256"
        }
      ],
      "name": "LogRefundIssued",
      "type": "event"
    },
    {
      "anonymous": false,
      "inputs": [
        {
          "indexed": false,
          "name": "message",
          "type": "string"
        }
      ],
      "name": "LogFailure",
      "type": "event"
    },
    {
      "constant": true,
      "inputs": [],
      "name": "getCampaign",
      "outputs": [
        {
          "name": "",
          "type": "string"
        },
        {
          "name": "",
          "type": "uint256"
        },
        {
          "name": "",
          "type": "uint8"
        },
        {
          "name": "",
          "type": "address"
        },
        {
          "name": "",
          "type": "uint256"
        },
        {
          "name": "",
          "type": "uint256"
        },
        {
          "name": "",
          "type": "uint256"
        },
        {
          "name": "",
          "type": "uint256"
        },
        {
          "name": "",
          "type": "uint256"
        },
        {
          "name": "",
          "type": "address"
        },
        {
          "name": "",
          "type": "address"
        }
      ],
      "payable": false,
      "stateMutability": "view",
      "type": "function"
    },
    {
      "constant": true,
      "inputs": [
        {
          "name": "_id",
          "type": "uint256"
        }
      ],
      "name": "getContribution",
      "outputs": [
        {
          "name": "",
          "type": "uint256"
        },
        {
          "name": "",
          "type": "bool"
        },
        {
          "name": "",
          "type": "address"
        }
      ],
      "payable": false,
      "stateMutability": "view",
      "type": "function"
    },
    {
      "constant": false,
      "inputs": [
        {
          "name": "_contributor",
          "type": "address"
        },
        {
          "name": "_isMatchVault",
          "type": "bool"
        }
      ],
      "name": "fund",
      "outputs": [
        {
          "name": "successful",
          "type": "bool"
        }
      ],
      "payable": true,
      "stateMutability": "payable",
      "type": "function"
    },
    {
      "constant": false,
      "inputs": [],
      "name": "payout",
      "outputs": [
        {
          "name": "successful",
          "type": "bool"
        }
      ],
      "payable": true,
      "stateMutability": "payable",
      "type": "function"
    },
    {
      "constant": false,
      "inputs": [],
      "name": "refund",
      "outputs": [
        {
          "name": "successful",
          "type": "bool"
        }
      ],
      "payable": true,
      "stateMutability": "payable",
      "type": "function"
    },
    {
      "constant": true,
      "inputs": [],
      "name": "isOpen",
      "outputs": [
        {
          "name": "",
          "type": "bool"
        }
      ],
      "payable": false,
      "stateMutability": "view",
      "type": "function"
    },
    {
      "constant": true,
      "inputs": [],
      "name": "hasClosed",
      "outputs": [
        {
          "name": "",
          "type": "bool"
        }
      ],
      "payable": false,
      "stateMutability": "view",
      "type": "function"
    },
    {
      "constant": false,
      "inputs": [],
      "name": "kill",
      "outputs": [],
      "payable": false,
      "stateMutability": "nonpayable",
      "type": "function"
    }
  ],
  "bytecode": "0x60806040523480156200001157600080fd5b506040516200177f3803806200177f833981018060405281019080805182019291906020018051906020019092919080519060200190929190805190602001909291905050508242101515620000f4577fa2db52a45d71264723caeac03c235d51bb30cff5e1ac71c97a5842ec94fbb6af6040518080602001828103825260388152602001807f43616d706169676e20646561646c696e65206d7573742062652067726561746581526020017f72207468616e207468652063757272656e7420626c6f636b000000000000000081525060400191505060405180910390a1600080fd5b60008260ff1610151562000195577fa2db52a45d71264723caeac03c235d51bb30cff5e1ac71c97a5842ec94fbb6af6040518080602001828103825260238152602001807f4d61746368206d6574686f64206d75737420626520677265617465722074686181526020017f6e2030000000000000000000000000000000000000000000000000000000000081525060400191505060405180910390a1600080fd5b60008173ffffffffffffffffffffffffffffffffffffffff16141562000248577fa2db52a45d71264723caeac03c235d51bb30cff5e1ac71c97a5842ec94fbb6af60405180806020018281038252602d8152602001807f43616d706169676e206d75737420696e636c75646520612076616c696420637281526020017f6561746f7220616464726573730000000000000000000000000000000000000081525060400191505060405180910390a1600080fd5b336000806101000a81548173ffffffffffffffffffffffffffffffffffffffff021916908373ffffffffffffffffffffffffffffffffffffffff1602179055506080604051908101604052808581526020018481526020018360ff1681526020018273ffffffffffffffffffffffffffffffffffffffff1681525060096000820151816000019080519060200190620002e39291906200038b565b506020820151816001015560408201518160020160006101000a81548160ff021916908360ff16021790555060608201518160020160016101000a81548173ffffffffffffffffffffffffffffffffffffffff021916908373ffffffffffffffffffffffffffffffffffffffff16021790555090505060006004819055506000600581905550600060068190555060006007819055506000600881905550505050506200043a565b828054600181600116156101000203166002900490600052602060002090601f016020900481019282601f10620003ce57805160ff1916838001178555620003ff565b82800160010185558215620003ff579182015b82811115620003fe578251825591602001919060010190620003e1565b5b5090506200040e919062000412565b5090565b6200043791905b808211156200043357600081600090555060010162000419565b5090565b90565b611335806200044a6000396000f3006080604052600436106100fc576000357c0100000000000000000000000000000000000000000000000000000000900463ffffffff1680631515bc2b1461010e5780631cee07001461013d5780631f6d4942146101bc578063236b8e3a146102135780632b43536614610373578063336bac5f146103cd57806338658175146103f857806340dafc071461042357806341c0e1b51461044e57806347535d7b14610465578063590e1ae31461049457806363bd1d4a146104b65780637569b3d7146104d857806384da3f001461050357806384dd4cfb1461055a578063cef42254146105b1578063fcd802b114610630578063fe47a8a714610707575b34801561010857600080fd5b50600080fd5b34801561011a57600080fd5b50610123610732565b604051808215151515815260200191505060405180910390f35b34801561014957600080fd5b5061016860048036038101908080359060200190929190505050610741565b60405180848152602001831515151581526020018273ffffffffffffffffffffffffffffffffffffffff1673ffffffffffffffffffffffffffffffffffffffff168152602001935050505060405180910390f35b3480156101c857600080fd5b506101fd600480360381019080803573ffffffffffffffffffffffffffffffffffffffff169060200190929190505050610798565b6040518082815260200191505060405180910390f35b34801561021f57600080fd5b506102286107b0565b60405180806020018c81526020018b60ff1660ff1681526020018a73ffffffffffffffffffffffffffffffffffffffff1673ffffffffffffffffffffffffffffffffffffffff1681526020018981526020018881526020018781526020018681526020018581526020018473ffffffffffffffffffffffffffffffffffffffff1673ffffffffffffffffffffffffffffffffffffffff1681526020018373ffffffffffffffffffffffffffffffffffffffff1673ffffffffffffffffffffffffffffffffffffffff16815260200182810382528d818151815260200191508051906020019080838360005b8381101561032e578082015181840152602081019050610313565b50505050905090810190601f16801561035b5780820380516001836020036101000a031916815260200191505b509c5050505050505050505050505060405180910390f35b6103b3600480360381019080803573ffffffffffffffffffffffffffffffffffffffff1690602001909291908035151590602001909291905050506108f6565b604051808215151515815260200191505060405180910390f35b3480156103d957600080fd5b506103e2610c45565b6040518082815260200191505060405180910390f35b34801561040457600080fd5b5061040d610c4b565b6040518082815260200191505060405180910390f35b34801561042f57600080fd5b50610438610c51565b6040518082815260200191505060405180910390f35b34801561045a57600080fd5b50610463610c57565b005b34801561047157600080fd5b5061047a610cf0565b604051808215151515815260200191505060405180910390f35b61049c610d00565b604051808215151515815260200191505060405180910390f35b6104be610f93565b604051808215151515815260200191505060405180910390f35b3480156104e457600080fd5b506104ed61108d565b6040518082815260200191505060405180910390f35b34801561050f57600080fd5b50610518611093565b604051808273ffffffffffffffffffffffffffffffffffffffff1673ffffffffffffffffffffffffffffffffffffffff16815260200191505060405180910390f35b34801561056657600080fd5b5061059b600480360381019080803573ffffffffffffffffffffffffffffffffffffffff1690602001909291905050506110b8565b6040518082815260200191505060405180910390f35b3480156105bd57600080fd5b506105dc600480360381019080803590602001909291905050506110d0565b60405180848152602001831515151581526020018273ffffffffffffffffffffffffffffffffffffffff1673ffffffffffffffffffffffffffffffffffffffff168152602001935050505060405180910390f35b34801561063c57600080fd5b50610645611196565b60405180806020018581526020018460ff1660ff1681526020018373ffffffffffffffffffffffffffffffffffffffff1673ffffffffffffffffffffffffffffffffffffffff168152602001828103825286818151815260200191508051906020019080838360005b838110156106c95780820151818401526020810190506106ae565b50505050905090810190601f1680156106f65780820380516001836020036101000a031916815260200191505b509550505050505060405180910390f35b34801561071357600080fd5b5061071c611279565b6040518082815260200191505060405180910390f35b60006009600101544211905090565b60036020528060005260406000206000915090508060000154908060010160009054906101000a900460ff16908060010160019054906101000a900473ffffffffffffffffffffffffffffffffffffffff16905083565b60016020528060005260406000206000915090505481565b60606000806000806000806000806000806009600001600960010154600960020160009054906101000a900460ff16600960020160019054906101000a900473ffffffffffffffffffffffffffffffffffffffff166004546005546006546007546008546000809054906101000a900473ffffffffffffffffffffffffffffffffffffffff16308a8054600181600116156101000203166002900480601f0160208091040260200160405190810160405280929190818152602001828054600181600116156101000203166002900480156108cc5780601f106108a1576101008083540402835291602001916108cc565b820191906000526020600020905b8154815290600101906020018083116108af57829003601f168201915b50505050509a509a509a509a509a509a509a509a509a509a509a509a50909192939495969798999a565b6000806109016112cf565b610909610cf0565b151561091457600080fd5b61091e853461127f565b600160008673ffffffffffffffffffffffffffffffffffffffff1673ffffffffffffffffffffffffffffffffffffffff16815260200190815260200160002054915083156109af576000600960020160009054906101000a900460ff1660ff1611151561098a57600080fd5b3460056000828254019250508190555034600660008282540192505081905550610a28565b600960020160009054906101000a900460ff1660ff1634026006541115156109d657600080fd5b600960020160009054906101000a900460ff1660010160ff163402600460008282540192505081905550600960020160009054906101000a900460ff1660ff1634026006600082825403925050819055505b60076000815480929190600101919050555060036000600754815260200190815260200160002060606040519081016040529081600082015481526020016001820160009054906101000a900460ff161515151581526020016001820160019054906101000a900473ffffffffffffffffffffffffffffffffffffffff1673ffffffffffffffffffffffffffffffffffffffff1673ffffffffffffffffffffffffffffffffffffffff1681525050905084816040019073ffffffffffffffffffffffffffffffffffffffff16908173ffffffffffffffffffffffffffffffffffffffff168152505034816000018181525050838160200190151590811515815250508315610b7e5734600260008773ffffffffffffffffffffffffffffffffffffffff1673ffffffffffffffffffffffffffffffffffffffff168152602001908152602001600020600082825401925050819055505b6000821415610b9a576008600081548092919060010191905055505b7f1613ab8aabab6179e17fac6982185658b18ef4166931650cf8a2d5ed1a987aeb308634604051808473ffffffffffffffffffffffffffffffffffffffff1673ffffffffffffffffffffffffffffffffffffffff1681526020018373ffffffffffffffffffffffffffffffffffffffff1673ffffffffffffffffffffffffffffffffffffffff168152602001828152602001935050505060405180910390a160019250505092915050565b60065481565b60075481565b60055481565b600960020160019054906101000a900473ffffffffffffffffffffffffffffffffffffffff1673ffffffffffffffffffffffffffffffffffffffff163373ffffffffffffffffffffffffffffffffffffffff16141515610cb657600080fd5b6000809054906101000a900473ffffffffffffffffffffffffffffffffffffffff1673ffffffffffffffffffffffffffffffffffffffff16ff5b6000600960010154421115905090565b600080610d0b610732565b1515610d1657600080fd5b6000600260003373ffffffffffffffffffffffffffffffffffffffff1673ffffffffffffffffffffffffffffffffffffffff16815260200190815260200160002054111515610d6457600080fd5b600654600554600260003373ffffffffffffffffffffffffffffffffffffffff1673ffffffffffffffffffffffffffffffffffffffff16815260200190815260200160002054811515610db357fe5b040290506000600260003373ffffffffffffffffffffffffffffffffffffffff1673ffffffffffffffffffffffffffffffffffffffff168152602001908152602001600020819055503373ffffffffffffffffffffffffffffffffffffffff166108fc829081150290604051600060405180830381858888f1935050505015610ede577f5912b7ad61865e7a6d5dcaa41e58e9563c7e286fc42999b67e1773e6b76e322d303383604051808473ffffffffffffffffffffffffffffffffffffffff1673ffffffffffffffffffffffffffffffffffffffff1681526020018373ffffffffffffffffffffffffffffffffffffffff1673ffffffffffffffffffffffffffffffffffffffff168152602001828152602001935050505060405180910390a160019150610f8f565b80600160003373ffffffffffffffffffffffffffffffffffffffff1673ffffffffffffffffffffffffffffffffffffffff168152602001908152602001600020819055507fa2db52a45d71264723caeac03c235d51bb30cff5e1ac71c97a5842ec94fbb6af6040518080602001828103825260208152602001807f526566756e6420646964206e6f742073656e64207375636365737366756c6c7981525060200191505060405180910390a1600091505b5090565b600080610f9e610732565b1515610fa957600080fd5b600960020160019054906101000a900473ffffffffffffffffffffffffffffffffffffffff1673ffffffffffffffffffffffffffffffffffffffff163373ffffffffffffffffffffffffffffffffffffffff1614151561100857600080fd5b60045490506000600481905550600960020160019054906101000a900473ffffffffffffffffffffffffffffffffffffffff1673ffffffffffffffffffffffffffffffffffffffff166108fc829081150290604051600060405180830381858888f193505050501561107d5760019150611089565b80600481905550600091505b5090565b60085481565b6000809054906101000a900473ffffffffffffffffffffffffffffffffffffffff1681565b60026020528060005260406000206000915090505481565b60008060006110dd6112cf565b6003600086815260200190815260200160002060606040519081016040529081600082015481526020016001820160009054906101000a900460ff161515151581526020016001820160019054906101000a900473ffffffffffffffffffffffffffffffffffffffff1673ffffffffffffffffffffffffffffffffffffffff1673ffffffffffffffffffffffffffffffffffffffff16815250509050806000015181602001518260400151935093509350509193909250565b6009806000018054600181600116156101000203166002900480601f0160208091040260200160405190810160405280929190818152602001828054600181600116156101000203166002900480156112305780601f1061120557610100808354040283529160200191611230565b820191906000526020600020905b81548152906001019060200180831161121357829003601f168201915b5050505050908060010154908060020160009054906101000a900460ff16908060020160019054906101000a900473ffffffffffffffffffffffffffffffffffffffff16905084565b60045481565b600073ffffffffffffffffffffffffffffffffffffffff168273ffffffffffffffffffffffffffffffffffffffff16141515156112bb57600080fd5b600081141515156112cb57600080fd5b5050565b60606040519081016040528060008152602001600015158152602001600073ffffffffffffffffffffffffffffffffffffffff16815250905600a165627a7a723058206ddae061675524a0897baa57a2e107ca4d69ceba79c578b5941c610ce26673db0029",
  "source": "pragma solidity ^0.4.4;\n\nimport 'openzeppelin-solidity/contracts/math/SafeMath.sol';\n\ncontract Campaign {\n    using SafeMath for uint256;\n\n    struct Properties {\n        string title;\n        uint deadline;\n        uint8 matchRate;\n        address creator;\n    }\n\n    struct Contribution {\n        uint amount;\n        bool isMatchVault;\n        address contributor;\n    }\n\n    address public campaignHub;\n\n    mapping(address => uint) public contributors; // Map contributor address to his total contribution amount\n    mapping(address => uint) public contributorToVault; // Map contributor address to his contribution to the match vault\n    mapping(uint => Contribution) public contributions;\n\n    uint public totalFunding;\n    uint public totalMatchVault;\n    uint public currentMatchVault;\n    uint public contributionsCount;\n    uint public contributorsCount;\n\n    Properties public properties;\n\n    event LogContributionReceived(address campaignAddress, address contributor, uint amount);\n    event LogContributionVaultReceived(address campaignAddress, address contributor, uint amount);\n    event LogPayoutInitiated(address campaignAddress, address owner, uint totalPayout);\n    event LogRefundIssued(address campaignAddress, address contributor, uint refundAmount);\n\n    event LogFailure(string message);\n\n    modifier onlyWhileOpen {\n        require(isOpen());\n        _;\n    }\n\n    modifier onlyWhenClosed {\n        require(hasClosed());\n        _;\n    }\n\n    constructor (string _title, uint _deadline, uint8 _matchRate, address _creator) public {\n\n        // Check to see the deadline is in the future\n        if (block.timestamp >= _deadline) {\n            emit LogFailure(\"Campaign deadline must be greater than the current block\");\n            revert();\n        }\n\n        // Check to see the match method is valid\n        if (_matchRate >= 0) {\n            emit LogFailure(\"Match method must be greater than 0\");\n            revert();\n        }\n\n        // Check to see that a creator (payout) address is valid\n        if (_creator == 0) {\n            emit LogFailure(\"Campaign must include a valid creator address\");\n            revert();\n        }\n\n        campaignHub = msg.sender;\n\n        // initialize properties struct\n        properties = Properties({\n            title : _title,\n            deadline : _deadline,\n            matchRate : _matchRate,\n            creator : _creator\n            });\n\n        totalFunding = 0;\n        totalMatchVault = 0;\n        currentMatchVault = 0;\n        contributionsCount = 0;\n        contributorsCount = 0;\n    }\n\n    /**\n    * Campaign values are indexed in return value:\n    * [0] -> Campaign.properties.title\n    * [1] -> Campaign.properties.deadline\n    * [2] -> Campaign.properties.matchRate\n    * [3] -> Campaign.properties.creator\n    * [4] -> Campaign.totalFunding\n    * [5] -> Campaign.totalMatchVault\n    * [6] -> Campaign.currentMatchVault\n    * [7] -> Campaign.contributionsCount\n    * [8] -> Campaign.contributorsCount\n    * [9] -> Campaign.campaignHub\n    * [10] -> Campaign (address)\n    */\n    function getCampaign() external view returns (string, uint, uint8, address, uint, uint, uint, uint, uint, address, address) {\n        return (properties.title,\n        properties.deadline,\n        properties.matchRate,\n        properties.creator,\n        totalFunding,\n        totalMatchVault,\n        currentMatchVault,\n        contributionsCount,\n        contributorsCount,\n        campaignHub,\n        address(this));\n    }\n\n    /**\n    * Retrieve indiviual contribution information\n    * [0] -> Contribution.amount\n    * [1] -> Contribution.isMatchVault\n    * [2] -> Contribution.contributor\n    */\n    function getContribution(uint _id) external view returns (uint, bool, address) {\n        Contribution memory c = contributions[_id];\n        return (c.amount, c.isMatchVault, c.contributor);\n    }\n\n    /**\n    * This is the function called when the CampaignHub receives a contribution.\n    * If the contribution was sent after the deadline of the campaign passed,\n    * the function must return the value to the originator of the transaction.\n    * [0] -> fund was successful\n    */\n    function fund(address _contributor, bool _isMatchVault) external onlyWhileOpen payable returns (bool successful) {\n        _preValidateContribution(_contributor, msg.value);\n\n        // determine if this is a new contributor\n        uint prevContributionBalance = contributors[_contributor];\n\n        // Update fund\n        if (_isMatchVault) {\n            require(properties.matchRate > 0);\n            totalMatchVault += msg.value;\n            currentMatchVault += msg.value;\n        } else {\n            require(currentMatchVault > msg.value * properties.matchRate);\n            totalFunding += msg.value * (1 + properties.matchRate);\n            currentMatchVault -= msg.value * properties.matchRate;\n        }\n        contributionsCount++;\n\n        // Add contribution to contributions map\n        Contribution memory c = contributions[contributionsCount];\n        c.contributor = _contributor;\n        c.amount = msg.value;\n        c.isMatchVault = _isMatchVault;\n\n        // Update contributor's balance in match vault\n        if (_isMatchVault) {\n            contributorToVault[_contributor] += msg.value;\n        }\n\n        // Check if contributor is new and if so increase count\n        if (prevContributionBalance == 0) {\n            contributorsCount++;\n        }\n\n        emit LogContributionReceived(this, _contributor, msg.value);\n\n        return true;\n    }\n\n    /*\n    * Transfer fund to campaign creator\n    */\n    function payout() external onlyWhenClosed payable returns (bool successful) {\n        require(msg.sender == properties.creator);\n\n        uint amount = totalFunding;\n\n        // prevent re-entrancy attack\n        totalFunding = 0;\n\n        if (properties.creator.send(amount)) {\n            return true;\n        } else {\n            totalFunding = amount;\n            return false;\n        }\n\n        return true;\n    }\n\n    /**\n    * If the deadline is passed, allow match maker contributors to withdraw their contributions.\n    * [0] -> refund was successful\n    */\n    function refund() external payable returns (bool successful) {\n\n        require(hasClosed());\n        require(contributorToVault[msg.sender] > 0);\n\n        uint amount = (contributorToVault[msg.sender] / totalMatchVault) * currentMatchVault;\n\n        //prevent re-entrancy attack\n        contributorToVault[msg.sender] = 0;\n\n        if (msg.sender.send(amount)) {\n            emit LogRefundIssued(address(this), msg.sender, amount);\n            return true;\n        } else {\n            contributors[msg.sender] = amount;\n            emit LogFailure(\"Refund did not send successfully\");\n            return false;\n        }\n        return true;\n    }\n\n    /**\n     * @dev Validation of an incoming contribution.\n     * @param _contributor Address performing the campaign contribution\n     * @param _weiAmount Value in wei involved in the purchase\n     */\n    function _preValidateContribution(address _contributor, uint _weiAmount) internal {\n        require(_contributor != address(0));\n        require(_weiAmount != 0);\n    }\n\n    /**\n     * @return true if the campaign is open, false otherwise.\n     */\n    function isOpen() public view returns (bool) {\n        return block.timestamp <= properties.deadline;\n    }\n\n    /**\n     * @dev Checks whether the period in which the campaign is open has already elapsed.\n     * @return Whether campaign period has elapsed\n     */\n    function hasClosed() public view returns (bool) {\n        return block.timestamp > properties.deadline;\n    }\n\n    function kill() public {\n        require(msg.sender == properties.creator);\n        selfdestruct(campaignHub);\n    }\n\n    /**\n    * Don't allow Ether to be sent blindly to this contract\n    */\n    function() public {\n        revert();\n    }\n}",
  "sourcePath": "/Users/sontong/capstone/contracts/Campaign.sol",
  "compiler": {
    "name": "solc",
    "version": "0.4.24+commit.e67f0147.Emscripten.clang"
  },
  "schemaVersion": "2.0.1",
  "updatedAt": "2018-11-08T06:14:04.587Z"
}