{
  "contractName": "Campaign",
  "abi": [
    {
      "constant": true,
      "inputs": [
        {
          "name": "",
          "type": "uint256"
        }
      ],
      "name": "contributions",
      "outputs": [
        {
          "name": "amount",
          "type": "uint256"
        },
        {
          "name": "isMatchVault",
          "type": "bool"
        },
        {
          "name": "contributor",
          "type": "address"
        }
      ],
      "payable": false,
      "stateMutability": "view",
      "type": "function"
    },
    {
      "constant": true,
      "inputs": [
        {
          "name": "",
          "type": "address"
        }
      ],
      "name": "contributors",
      "outputs": [
        {
          "name": "",
          "type": "uint256"
        }
      ],
      "payable": false,
      "stateMutability": "view",
      "type": "function"
    },
    {
      "constant": true,
      "inputs": [],
      "name": "currentMatchVault",
      "outputs": [
        {
          "name": "",
          "type": "uint256"
        }
      ],
      "payable": false,
      "stateMutability": "view",
      "type": "function"
    },
    {
      "constant": true,
      "inputs": [],
      "name": "contributionsCount",
      "outputs": [
        {
          "name": "",
          "type": "uint256"
        }
      ],
      "payable": false,
      "stateMutability": "view",
      "type": "function"
    },
    {
      "constant": true,
      "inputs": [],
      "name": "totalMatchVault",
      "outputs": [
        {
          "name": "",
          "type": "uint256"
        }
      ],
      "payable": false,
      "stateMutability": "view",
      "type": "function"
    },
    {
      "constant": true,
      "inputs": [],
      "name": "contributorsCount",
      "outputs": [
        {
          "name": "",
          "type": "uint256"
        }
      ],
      "payable": false,
      "stateMutability": "view",
      "type": "function"
    },
    {
      "constant": true,
      "inputs": [],
      "name": "campaignHub",
      "outputs": [
        {
          "name": "",
          "type": "address"
        }
      ],
      "payable": false,
      "stateMutability": "view",
      "type": "function"
    },
    {
      "constant": true,
      "inputs": [
        {
          "name": "",
          "type": "address"
        }
      ],
      "name": "contributorToVault",
      "outputs": [
        {
          "name": "",
          "type": "uint256"
        }
      ],
      "payable": false,
      "stateMutability": "view",
      "type": "function"
    },
    {
      "constant": true,
      "inputs": [
        {
          "name": "",
          "type": "uint256"
        }
      ],
      "name": "contributionToContributor",
      "outputs": [
        {
          "name": "",
          "type": "address"
        }
      ],
      "payable": false,
      "stateMutability": "view",
      "type": "function"
    },
    {
      "constant": true,
      "inputs": [],
      "name": "properties",
      "outputs": [
        {
          "name": "title",
          "type": "string"
        },
        {
          "name": "deadline",
          "type": "uint256"
        },
        {
          "name": "matchRate",
          "type": "uint8"
        },
        {
          "name": "creator",
          "type": "address"
        }
      ],
      "payable": false,
      "stateMutability": "view",
      "type": "function"
    },
    {
      "constant": true,
      "inputs": [],
      "name": "totalFunding",
      "outputs": [
        {
          "name": "",
          "type": "uint256"
        }
      ],
      "payable": false,
      "stateMutability": "view",
      "type": "function"
    },
    {
      "inputs": [
        {
          "name": "_title",
          "type": "string"
        },
        {
          "name": "_deadline",
          "type": "uint256"
        },
        {
          "name": "_matchRate",
          "type": "uint8"
        },
        {
          "name": "_creator",
          "type": "address"
        }
      ],
      "payable": false,
      "stateMutability": "nonpayable",
      "type": "constructor"
    },
    {
      "constant": true,
      "inputs": [
        {
          "name": "_id",
          "type": "uint256"
        }
      ],
      "name": "getContribution",
      "outputs": [
        {
          "name": "",
          "type": "uint256"
        },
        {
          "name": "",
          "type": "bool"
        },
        {
          "name": "",
          "type": "address"
        }
      ],
      "payable": false,
      "stateMutability": "view",
      "type": "function"
    },
    {
      "constant": false,
      "inputs": [
        {
          "name": "_contributor",
          "type": "address"
        }
      ],
      "name": "fundDirect",
      "outputs": [],
      "payable": true,
      "stateMutability": "payable",
      "type": "function"
    },
    {
      "constant": false,
      "inputs": [
        {
          "name": "_contributor",
          "type": "address"
        }
      ],
      "name": "fundVault",
      "outputs": [],
      "payable": true,
      "stateMutability": "payable",
      "type": "function"
    },
    {
      "constant": false,
      "inputs": [],
      "name": "payout",
      "outputs": [],
      "payable": true,
      "stateMutability": "payable",
      "type": "function"
    },
    {
      "constant": false,
      "inputs": [],
      "name": "refund",
      "outputs": [],
      "payable": true,
      "stateMutability": "payable",
      "type": "function"
    },
    {
      "constant": true,
      "inputs": [],
      "name": "isOpen",
      "outputs": [
        {
          "name": "",
          "type": "bool"
        }
      ],
      "payable": false,
      "stateMutability": "view",
      "type": "function"
    },
    {
      "constant": true,
      "inputs": [],
      "name": "hasClosed",
      "outputs": [
        {
          "name": "",
          "type": "bool"
        }
      ],
      "payable": false,
      "stateMutability": "view",
      "type": "function"
    }
  ],
  "bytecode": "0x60806040523480156200001157600080fd5b506040516200129338038062001293833981018060405281019080805182019291906020018051906020019092919080519060200190929190805190602001909291905050508242101515156200006757600080fd5b60008260ff16101515156200007b57600080fd5b60008173ffffffffffffffffffffffffffffffffffffffff1614151515620000a257600080fd5b33600160006101000a81548173ffffffffffffffffffffffffffffffffffffffff021916908373ffffffffffffffffffffffffffffffffffffffff1602179055506080604051908101604052808581526020018481526020018360ff1681526020018273ffffffffffffffffffffffffffffffffffffffff16815250600a60008201518160000190805190602001906200013e929190620001e6565b506020820151816001015560408201518160020160006101000a81548160ff021916908360ff16021790555060608201518160020160016101000a81548173ffffffffffffffffffffffffffffffffffffffff021916908373ffffffffffffffffffffffffffffffffffffffff160217905550905050600060058190555060006006819055506000600781905550600060088190555060006009819055505050505062000295565b828054600181600116156101000203166002900490600052602060002090601f016020900481019282601f106200022957805160ff19168380011785556200025a565b828001600101855582156200025a579182015b82811115620002595782518255916020019190600101906200023c565b5b5090506200026991906200026d565b5090565b6200029291905b808211156200028e57600081600090555060010162000274565b5090565b90565b610fee80620002a56000396000f3006080604052600436106100fc576000357c0100000000000000000000000000000000000000000000000000000000900463ffffffff1680631515bc2b146101015780631cee0700146101305780631f6d4942146101af578063336bac5f14610206578063386581751461023157806340dafc071461025c57806347535d7b146102875780634f80c08a146102b6578063590e1ae3146102ec57806363bd1d4a146102f65780637569b3d71461030057806384da3f001461032b57806384dd4cfb146103825780638cf1fd5b146103d95780639f5aa8c314610446578063cef422541461047c578063fcd802b1146104fb578063fe47a8a7146105d2575b600080fd5b34801561010d57600080fd5b506101166105fd565b604051808215151515815260200191505060405180910390f35b34801561013c57600080fd5b5061015b6004803603810190808035906020019092919050505061060c565b60405180848152602001831515151581526020018273ffffffffffffffffffffffffffffffffffffffff1673ffffffffffffffffffffffffffffffffffffffff168152602001935050505060405180910390f35b3480156101bb57600080fd5b506101f0600480360381019080803573ffffffffffffffffffffffffffffffffffffffff169060200190929190505050610672565b6040518082815260200191505060405180910390f35b34801561021257600080fd5b5061021b61068a565b6040518082815260200191505060405180910390f35b34801561023d57600080fd5b50610246610690565b6040518082815260200191505060405180910390f35b34801561026857600080fd5b50610271610696565b6040518082815260200191505060405180910390f35b34801561029357600080fd5b5061029c61069c565b604051808215151515815260200191505060405180910390f35b6102ea600480360381019080803573ffffffffffffffffffffffffffffffffffffffff1690602001909291905050506106ac565b005b6102f46108f4565b005b6102fe610a39565b005b34801561030c57600080fd5b50610315610b29565b6040518082815260200191505060405180910390f35b34801561033757600080fd5b50610340610b2f565b604051808273ffffffffffffffffffffffffffffffffffffffff1673ffffffffffffffffffffffffffffffffffffffff16815260200191505060405180910390f35b34801561038e57600080fd5b506103c3600480360381019080803573ffffffffffffffffffffffffffffffffffffffff169060200190929190505050610b55565b6040518082815260200191505060405180910390f35b3480156103e557600080fd5b5061040460048036038101908080359060200190929190505050610b6d565b604051808273ffffffffffffffffffffffffffffffffffffffff1673ffffffffffffffffffffffffffffffffffffffff16815260200191505060405180910390f35b61047a600480360381019080803573ffffffffffffffffffffffffffffffffffffffff169060200190929190505050610ba0565b005b34801561048857600080fd5b506104a760048036038101908080359060200190929190505050610dcf565b60405180848152602001831515151581526020018273ffffffffffffffffffffffffffffffffffffffff1673ffffffffffffffffffffffffffffffffffffffff168152602001935050505060405180910390f35b34801561050757600080fd5b50610510610e9f565b60405180806020018581526020018460ff1660ff1681526020018373ffffffffffffffffffffffffffffffffffffffff1673ffffffffffffffffffffffffffffffffffffffff168152602001828103825286818151815260200191508051906020019080838360005b83811015610594578082015181840152602081019050610579565b50505050905090810190601f1680156105c15780820380516001836020036101000a031916815260200191505b509550505050505060405180910390f35b3480156105de57600080fd5b506105e7610f82565b6040518082815260200191505060405180910390f35b6000600a600101544211905090565b60008181548110151561061b57fe5b90600052602060002090600202016000915090508060000154908060010160009054906101000a900460ff16908060010160019054906101000a900473ffffffffffffffffffffffffffffffffffffffff16905083565b60026020528060005260406000206000915090505481565b60075481565b60085481565b60065481565b6000600a60010154421115905090565b6000806106b761069c565b15156106c257600080fd5b600260008473ffffffffffffffffffffffffffffffffffffffff1673ffffffffffffffffffffffffffffffffffffffff1681526020019081526020016000205491506000600a60020160009054906101000a900460ff1660ff1611151561072857600080fd5b3460066000828254019250508190555034600760008282540192505081905550600860008154809291906001019190505550600160006060604051908101604052803481526020016001151581526020018673ffffffffffffffffffffffffffffffffffffffff16815250908060018154018082558091505090600182039060005260206000209060020201600090919290919091506000820151816000015560208201518160010160006101000a81548160ff02191690831515021790555060408201518160010160016101000a81548173ffffffffffffffffffffffffffffffffffffffff021916908373ffffffffffffffffffffffffffffffffffffffff1602179055505050039050826004600083815260200190815260200160002060006101000a81548173ffffffffffffffffffffffffffffffffffffffff021916908373ffffffffffffffffffffffffffffffffffffffff16021790555034600360008573ffffffffffffffffffffffffffffffffffffffff1673ffffffffffffffffffffffffffffffffffffffff1681526020019081526020016000206000828254019250508190555060008214156108ef576009600081548092919060010191905055505b505050565b60006108fe6105fd565b151561090957600080fd5b6000600360003373ffffffffffffffffffffffffffffffffffffffff1673ffffffffffffffffffffffffffffffffffffffff1681526020019081526020016000205411151561095757600080fd5b600754600654600360003373ffffffffffffffffffffffffffffffffffffffff1673ffffffffffffffffffffffffffffffffffffffff168152602001908152602001600020548115156109a657fe5b040290506000600360003373ffffffffffffffffffffffffffffffffffffffff1673ffffffffffffffffffffffffffffffffffffffff168152602001908152602001600020819055503373ffffffffffffffffffffffffffffffffffffffff166108fc829081150290604051600060405180830381858888f19350505050158015610a35573d6000803e3d6000fd5b5050565b6000610a436105fd565b1515610a4e57600080fd5b600a60020160019054906101000a900473ffffffffffffffffffffffffffffffffffffffff1673ffffffffffffffffffffffffffffffffffffffff163373ffffffffffffffffffffffffffffffffffffffff16141515610aad57600080fd5b60055490506000600581905550600a60020160019054906101000a900473ffffffffffffffffffffffffffffffffffffffff1673ffffffffffffffffffffffffffffffffffffffff166108fc829081150290604051600060405180830381858888f19350505050158015610b25573d6000803e3d6000fd5b5050565b60095481565b600160009054906101000a900473ffffffffffffffffffffffffffffffffffffffff1681565b60036020528060005260406000206000915090505481565b60046020528060005260406000206000915054906101000a900473ffffffffffffffffffffffffffffffffffffffff1681565b600080610bab61069c565b1515610bb657600080fd5b600260008473ffffffffffffffffffffffffffffffffffffffff1673ffffffffffffffffffffffffffffffffffffffff168152602001908152602001600020549150600a60020160009054906101000a900460ff1660ff163402600754111515610c1f57600080fd5b600a60020160009054906101000a900460ff1660010160ff163402600560008282540192505081905550600a60020160009054906101000a900460ff1660ff163402600760008282540392505081905550600860008154809291906001019190505550600160006060604051908101604052803481526020016000151581526020018673ffffffffffffffffffffffffffffffffffffffff16815250908060018154018082558091505090600182039060005260206000209060020201600090919290919091506000820151816000015560208201518160010160006101000a81548160ff02191690831515021790555060408201518160010160016101000a81548173ffffffffffffffffffffffffffffffffffffffff021916908373ffffffffffffffffffffffffffffffffffffffff1602179055505050039050826004600083815260200190815260200160002060006101000a81548173ffffffffffffffffffffffffffffffffffffffff021916908373ffffffffffffffffffffffffffffffffffffffff1602179055506000821415610dca576009600081548092919060010191905055505b505050565b6000806000610ddc610f88565b600085815481101515610deb57fe5b906000526020600020906002020160606040519081016040529081600082015481526020016001820160009054906101000a900460ff161515151581526020016001820160019054906101000a900473ffffffffffffffffffffffffffffffffffffffff1673ffffffffffffffffffffffffffffffffffffffff1673ffffffffffffffffffffffffffffffffffffffff16815250509050806000015181602001518260400151935093509350509193909250565b600a806000018054600181600116156101000203166002900480601f016020809104026020016040519081016040528092919081815260200182805460018160011615610100020316600290048015610f395780601f10610f0e57610100808354040283529160200191610f39565b820191906000526020600020905b815481529060010190602001808311610f1c57829003601f168201915b5050505050908060010154908060020160009054906101000a900460ff16908060020160019054906101000a900473ffffffffffffffffffffffffffffffffffffffff16905084565b60055481565b60606040519081016040528060008152602001600015158152602001600073ffffffffffffffffffffffffffffffffffffffff16815250905600a165627a7a723058208b1b281179539053c24bc2de6ab57ce3ab1a1b1a145e84fd7decc47da1cbc7e00029",
  "source": "pragma solidity ^0.4.4;\n\nimport 'openzeppelin-solidity/contracts/math/SafeMath.sol';\n\ncontract Campaign {\n    using SafeMath for uint256;\n\n    struct Properties {\n        string title;\n        uint deadline;\n        uint8 matchRate;\n        address creator;\n    }\n\n    struct Contribution {\n        uint amount;\n        bool isMatchVault;\n        address contributor;\n    }\n\n    Contribution[] public contributions;\n    address public campaignHub;\n\n    mapping(address => uint) public contributors; // Map contributor address to his total contribution amount\n    mapping(address => uint) public contributorToVault; // Map contributor address to his contribution to the match vault\n    mapping(uint => address) public contributionToContributor;\n\n    uint public totalFunding;\n    uint public totalMatchVault;\n    uint public currentMatchVault;\n    uint public contributionsCount;\n    uint public contributorsCount;\n\n    Properties public properties;\n\n    modifier onlyWhileOpen {\n        require(isOpen());\n        _;\n    }\n\n    modifier onlyWhenClosed {\n        require(hasClosed());\n        _;\n    }\n\n    constructor (string _title, uint _deadline, uint8 _matchRate, address _creator) public {\n\n        require(block.timestamp >= _deadline);\n        require(_matchRate >= 0);\n        require(_creator != 0);\n\n        campaignHub = msg.sender;\n\n        // initialize properties struct\n        properties = Properties({\n            title : _title,\n            deadline : _deadline,\n            matchRate : _matchRate,\n            creator : _creator\n            });\n\n        totalFunding = 0;\n        totalMatchVault = 0;\n        currentMatchVault = 0;\n        contributionsCount = 0;\n        contributorsCount = 0;\n    }\n\n//    /**\n//    * Campaign values are indexed in return value:\n//    * [0] -> Campaign.properties.title\n//    * [1] -> Campaign.properties.deadline\n//    * [2] -> Campaign.properties.matchRate\n//    * [3] -> Campaign.properties.creator\n//    * [4] -> Campaign.totalFunding\n//    * [5] -> Campaign.totalMatchVault\n//    * [6] -> Campaign.currentMatchVault\n//    * [7] -> Campaign.contributionsCount\n//    * [8] -> Campaign.contributorsCount\n//    * [9] -> Campaign.campaignHub\n//    * [10] -> Campaign (address)\n//    */\n//    function getCampaign() external view returns (string, uint, uint8, address, uint, uint, uint, uint, uint, address, address) {\n//        return (properties.title,\n//        properties.deadline,\n//        properties.matchRate,\n//        properties.creator,\n//        totalFunding,\n//        totalMatchVault,\n//        currentMatchVault,\n//        contributionsCount,\n//        contributorsCount,\n//        campaignHub,\n//        address(this));\n//    }\n\n    /**\n    * Retrieve indiviual contribution information\n    * [0] -> Contribution.amount\n    * [1] -> Contribution.isMatchVault\n    * [2] -> Contribution.contributor\n    */\n    function getContribution(uint _id) external view returns (uint, bool, address) {\n        Contribution memory c = contributions[_id];\n        return (c.amount, c.isMatchVault, c.contributor);\n    }\n\n    /**\n    * This is the function called when the CampaignHub receives a direct contribution.\n    * If the contribution was sent after the deadline of the campaign passed,\n    * the function must return the value to the originator of the transaction.\n    */\n    function fundDirect(address _contributor) external onlyWhileOpen payable {\n\n        // determine if this is a new contributor\n        uint prevContributionBalance = contributors[_contributor];\n\n        // Update fund\n        require(currentMatchVault > msg.value * properties.matchRate);\n        totalFunding += msg.value * (1 + properties.matchRate);\n        currentMatchVault -= msg.value * properties.matchRate;\n        contributionsCount++;\n\n        // Add contribution to contributions map\n        uint id = contributions.push(Contribution(msg.value, false, _contributor)) - 1;\n        contributionToContributor[id] = _contributor;\n\n        // Check if contributor is new and if so increase count\n        if (prevContributionBalance == 0) {\n            contributorsCount++;\n        }\n    }\n\n    /**\n    * This is the function called when the CampaignHub receives a contribution.\n    * If the contribution was sent after the deadline of the campaign passed,\n    * the function must return the value to the originator of the transaction.\n    * [0] -> fund was successful\n    */\n    function fundVault(address _contributor) external onlyWhileOpen payable {\n\n        // determine if this is a new contributor\n        uint prevContributionBalance = contributors[_contributor];\n\n        // Update fund\n        require(properties.matchRate > 0);\n        totalMatchVault += msg.value;\n        currentMatchVault += msg.value;\n        contributionsCount++;\n\n        // Add contribution to contributions map\n        uint id = contributions.push(Contribution(msg.value, true, _contributor)) - 1;\n        contributionToContributor[id] = _contributor;\n\n        // Update contributor's balance in match vault\n        contributorToVault[_contributor] += msg.value;\n\n        // Check if contributor is new and if so increase count\n        if (prevContributionBalance == 0) {\n            contributorsCount++;\n        }\n    }\n\n    /*\n    * Transfer fund to campaign creator\n    */\n    function payout() external onlyWhenClosed payable {\n\n        require(msg.sender == properties.creator);\n\n        uint amount = totalFunding;\n\n        // prevent re-entrancy attack\n        totalFunding = 0;\n\n        properties.creator.transfer(amount);\n    }\n\n    /**\n    * If the deadline is passed, allow match maker contributors to withdraw their contributions.\n    * [0] -> refund was successful\n    */\n    function refund() external payable {\n\n        require(hasClosed());\n        require(contributorToVault[msg.sender] > 0);\n\n        uint amount = (contributorToVault[msg.sender] / totalMatchVault) * currentMatchVault;\n\n        //prevent re-entrancy attack\n        contributorToVault[msg.sender] = 0;\n\n        msg.sender.transfer(amount);\n    }\n\n    /**\n     * Return true if the campaign is open, false otherwise.\n     */\n    function isOpen() public view returns (bool) {\n        return block.timestamp <= properties.deadline;\n    }\n\n    /**\n     * Checkswhether the period in which the campaign is open has already elapsed.\n     */\n    function hasClosed() public view returns (bool) {\n        return block.timestamp > properties.deadline;\n    }\n}",
  "sourcePath": "/Users/sontong/capstone/contracts/Campaign.sol",
  "compiler": {
    "name": "solc",
    "version": "0.4.24+commit.e67f0147.Emscripten.clang"
  },
  "schemaVersion": "2.0.1",
  "updatedAt": "2018-11-08T17:50:52.165Z"
}